:100000000C9446000C945D000C945D000C945D0013
:100010000C945D000C945D000C945D000C945D00EC
:100020000C945D000C945D000C945D000C945D00DC
:100030000C945D000C945D000C945D000C945D00CC
:100040000C945D000C945D000C945D000C945D00BC
:100050000C945D000C945D000C945D000C945D00AC
:100060000C945D000C945D000C945D000C945D009C
:100070000C945D000C945D000C945D000C945D008C
:100080000C945D000C945D000C945D0011241FBE67
:10009000CFEFD0E1DEBFCDBF11E0A0E0B1E0EEE9EF
:1000A000F4E000E00BBF02C007900D92A638B10744
:1000B000D9F70E94BC000C944D020C940000E5E6B8
:1000C000F0E090819D7F908390819E7F908382BBA2
:1000D00080818460808380EA9FE00197F1F78081CE
:1000E0008B7F808308958FEF81BB8093640012BA69
:1000F0001092650080EA9FE00197F1F788E30E9483
:100100005F008CE00E945F0086E00E945F0081E05B
:100110000E945F0080E00E945F000895E5E6F0E045
:1001200090819D7F908390819160908382BB80813C
:100130008460808380EA9FE00197F1F780818B7F64
:1001400080830895803108F08FE0662311F4805891
:1001500001C080540E945F000895CF93DF93EA01AD
:100160000E94A20003C00E948E00219688818823ED
:10017000D1F7DF91CF9108952F923F924F925F92E6
:100180006F927F928F929F92AF92BF92CF92DF92A7
:10019000EF92FF920F931F93DF93CF93CDB7DEB70C
:1001A000E5970FB6F894DEBF0FBECDBF0E94730077
:1001B000DE015C96EBE6F1E08AE101900D92815060
:1001C000E1F7DE011E96E9E2F1E08EE001900D928A
:1001D0008150E1F7DE011196E0E0F1E08DE0019061
:1001E0000D928150E1F78DE18B8300EE602E07E0E8
:1001F000702E12E0812E912CBBE1AB2EB12CCC24C1
:10020000DD24AAE0EA2EF12C442455241E01089492
:10021000211C311C8CE061E00E94A20080E30E945E
:100220008E0080E30E948E0083E50E948E0080E4B1
:100230009CE90197F1F70894C11CD11C88E061E0AA
:100240000E94A200C6016AE070E00E942602862F8A
:10025000805D0E948E00C6016AE070E00E94260266
:10026000805D0E948E008DE40E948E008CE3C81693
:10027000D1042CF00894E11CF11CCC24DD2484E092
:1002800061E00E94A200C7016AE070E00E942602BD
:10029000862F805D0E948E00C7016AE070E00E9498
:1002A0002602805D0E948E0088E40E948E009DE000
:1002B000E916F1041CF0F1E0EF2EF12C80E09CE057
:1002C000E916F10409F481E090E0C114D10409F4C5
:1002D00091E0892359F0452821F4E1E04E2E512C7C
:1002E00005C00894A11CB11C44245524F101E80D5B
:1002F000F91D808190E08A159B0534F40894811CD7
:10030000911C71E0A72EB12C8DE08816910434F079
:100310000894611C711C61E0862E912C81E061E0E3
:100320000E94A2004114510411F481E401C080E54F
:100330000E948E008DE40E948E0081E060E00E94A9
:10034000A200C30168EE73E00E942602862F805D42
:100350000E948E00C30164E670E00E942602CB0179
:100360006AE070E00E942602805D0E948E00C30158
:100370006AE070E00E942602CB016AE070E00E9411
:100380002602805D0E948E00C3016AE070E00E9438
:100390002602805D0E948E00F401EE0FFF1FE20D29
:1003A000F31D438D548D86E060E00E94AD008AE02D
:1003B00060E00E94A200C5016AE070E00E9426028F
:1003C000862F805D0E948E00C5016AE070E00E9469
:1003D0002602805D0E948E009301215030408901E9
:1003E0000A0D1B1DC9019595879595958795080F51
:1003F000191FC9016CE97FEF0E942602060F171F23
:10040000C90160E971E00E942602060F171F21E072
:1004100030E008C0F101E20FF31F8081080F111DC9
:100420002F5F3F4F28153905ACF3C80167E070E036
:100430000E942602FC01EE0FFF1FE20DF31D458511
:1004400056858DE060E00E94AD00E4CE97FB092E5A
:1004500007260AD077FD04D00CD006D000201AF46D
:10046000709561957F4F0895F6F7909581959F4F10
:100470000895AA1BBB1B51E107C0AA1FBB1FA617EB
:10048000B70710F0A61BB70B881F991F5A95A9F73D
:0E04900080959095BC01CD010895F894FFCFA2
:10049E00001F1C1F1E1F1E1F1F1E1F1E1F53554EEB
:1004AE00004D4F4E00545545005745440054485595
:1004BE000046524900534154000D01110115011916
:1004CE00011D0121012501303030004A414E004608
:1004DE004542004D415200415052004D4159004A93
:1004EE00554E004A554C0041554700534550004F5C
:1004FE004354004E4F56004445430037013B013FE5
:10050E0001430147014B014F01530157015B015F4D
:06051E000163016701000A
:00000001FF
