:100000000C9446000C9465000C9465000C946500FB
:100010000C9465000C9465000C9465000C946500CC
:100020000C9465000C9465000C9465000C946500BC
:100030000C9465000C9465000C9465000C946500AC
:100040000C9465000C9465000C9465000C9465009C
:100050000C9465000C9465000C9465000C9465008C
:100060000C9465000C9465000C9465000C9465007C
:100070000C9465000C9465000C9465000C9465006C
:100080000C9465000C9465000C94650011241FBE4F
:10009000CFEFD0E1DEBFCDBF12E0A0E0B1E0ECE1F8
:1000A000F9E100E00BBF02C007900D92AE38B10736
:1000B000D9F712E0AEE8B2E001C01D92A13AB10753
:1000C000E1F70E94E1010C948C0C0C940000E5E631
:1000D000F0E090819D7F908390819E7F908382BB92
:1000E00080818460808380EA9FE00197F1F78081BE
:1000F0008B7F808308958FEF81BB8093640012BA59
:100100001092650080EA9FE00197F1F788E30E9472
:1001100067008CE00E94670086E00E94670081E033
:100120000E94670080E00E9467000895E5E6F0E025
:1001300090819D7F908390819160908382BB80812C
:100140008460808380EA9FE00197F1F780818B7F54
:1001500080830895803108F08FE0662311F4805881
:1001600001C080540E9467000895CF93DF93EA0195
:100170000E94AA0003C00E949600219688818823CD
:10018000D1F7DF91CF91089510928E0210928F02D5
:100190001092900210929102109292021092990283
:1001A0001092980208951092930210929402109265
:1001B0009502109296021092970210929B02109252
:1001C0009A0208952091980230919902F901E2571C
:1001D000FD4F80832F5F3F4F309399022093980209
:1001E000089520919A0230919B02F901ED56FD4F3E
:1001F00080832F5F3F4F30939B0220939A02089594
:10020000EF92FF920F931F93DF93CF9300D000D014
:100210000F92CDB7DEB7FE01319685E0DF011D926A
:100220008A95E9F7AEE8B2E08F018C9181931D9237
:1002300082E0A339B807C9F7109299021092980288
:1002400080E060E040E051E00E94B50085E060E0C1
:100250000E94AA0086E0E82EF12CEC0EFD1ED801CB
:100260008D918D01805D0E94960080E20E94960033
:100270000E151F05A1F70F900F900F900F900F9084
:10028000CF91DF911F910F91FF90EF900895EF9222
:10029000FF920F931F93DF93CF9300D000D00F9264
:1002A000CDB7DEB7FE01319685E0DF011D928A955C
:1002B000E9F7A3E9B2E08F018C9181931D9282E06E
:1002C000A839B807C9F710929B0210929A0280E0F1
:1002D00061E046E051E00E94B50085E061E00E94E7
:1002E000AA0096E0E92EF12CEC0EFD1ED8018D91AE
:1002F0008D01805D0E94960080E20E9496000E159E
:100300001F05A1F70F900F900F900F900F90CF91B6
:10031000DF911F910F91FF90EF90089520E030E062
:1003200041E0F901E257FD4FD901AD56BD4F908133
:100330008C91981340E02F5F3F4F2530310589F7AE
:1003400040939C0208959FEF9ABB97BB80EF84BBBC
:1003500091BB109261000895FF920F931F93CF936A
:10036000DF93C0E0D0E000E911E0FF24FA9480E0E0
:1003700060E04CE051E00E94B50080E061E049E1BE
:1003800051E00E94B5001BBA80E29EE4F80131976B
:10039000F1F70197D9F7FBBA0E947B0080E29EE457
:1003A000F8013197F1F70197D9F72196C330D105BC
:1003B000F1F60E947B00DF91CF911F910F91FF908A
:1003C00008952F923F924F925F926F927F928F92F9
:1003D0009F92AF92BF92CF92DF92EF92FF920F93D4
:1003E0001F93DF93CF93CDB7DEB76A970FB6F8941C
:1003F000DEBF0FBECDBF9FEF9ABB97BB80EF84BB24
:1004000091BB109261000E947B00DE011396EAE727
:10041000F1E088E001900D928150E1F70E945F0CBD
:100420008FEF8BBB18BADE011B96EAE6F1E080E1A4
:1004300001900D928150E1F780E7898380EE8A83F5
:1004400080E687B985EA86B980B58F7180BD369A16
:100450000E94AC015524FF2460E9862E61E0962EAF
:1004600044244A9453E0252E312C2C0E3D1E80E26C
:1004700093E00197F1F7349A9CC1892B09F0C4C02D
:100480000E947B0080E060E043E251E00E94B50002
:1004900080E29EE4F4013197F1F70197D9F741E347
:1004A000742E80E060E043E251E00E94B5000E94BB
:1004B0005F0C28E030E040E050E00E947A0B662EAE
:1004C0004BBA6091650170916601882777FD809530
:1004D000982F0E9447085B016C0120E030E04AE75A
:1004E00055E40E9411067B018C0120E030E040E8D9
:1004F0005FE30E94170888231CF461E070E022C0CB
:10050000C801B70120E03FEF4FE757E40E94B7076B
:100510001816A4F4C601B50120E030E040E251E431
:100520000E9411060E943B0405C0C4010197F1F727
:100530006150704061157105C1F707C0C801B7016E
:100540000E943B04CB010197F1F7F101E60DF11D8B
:1005500080818BBB8091980290919902FC01E257B7
:10056000FD4F60820196909399028093980280E0FB
:1005700061E00E94AA0080916701805D0E94960060
:1005800080916801805D0E94960080916901805D84
:100590000E9496008DE60E94960083E70E949600D6
:1005A0008AE061E00E94AA0083E60E9496008EE63F
:1005B0000E94960084E70E9496008AE30E949600BB
:1005C0008EE061E00E94AA00872D0E94960088EBD1
:1005D0009BE0F4013197F1F70197D9F7739486E323
:1005E000781609F05ECF80E197E2F4013197F1F7D8
:1005F0000197D9F70E947B0080E060E042E351E080
:100600000E94B5004BBAFF246E010894C11CD11C96
:1006100010E0F601808185BB83B38F708F3009F4C1
:1006200068C080958F70813051F484EC99E0F401BA
:100630003197F1F70197D9F7F394512E25C0823005
:1006400051F484EC99E0F4013197F1F70197D9F76F
:10065000512E539418C0843051F484EC99E0F40185
:100660003197F1F70197D9F732E0532E0BC088305C
:1006700059F484EC99E0F4013197F1F70197D9F737
:1006800023E0522E510EF394EBE0F0E0EC0FFD1F4F
:10069000E50DF11D808188BB0E947B0080E060E059
:1006A00041E451E00E94B5008AE061E00E94AA00A6
:1006B00083E60E9496008EE60E94960084E70E94E0
:1006C00096008AE30E9496008EE061E00E94AA00F4
:1006D0008F2D805D0E94960080919A0290919B02DE
:1006E000FC01ED56FD4F5082019690939B02809342
:1006F0009A020894C11CD11C1C5F183009F089CFE4
:10070000F4E0FF1508F058C080E29EE4F401319750
:10071000F1F70197D9F70E948E010E947B000E9499
:1007200000010E94470180919C02813051F580E5D3
:1007300093EC20E931E0F9013197F1F70197D9F70E
:100740000E947B0080E060E04BE451E00E94B50035
:100750006A960FB6F894DEBF0FBECDBFCF91DF9182
:100760001F910F91FF90EF90DF90CF90BF90AF90CF
:100770009F908F907F906F905F904F903F902F90C1
:1007800008958823C9F480E593ECF4013197F1F7DB
:100790000197D9F70E947B0080E060E04AE551E0D4
:1007A0000E94B50080E593ECF4013197F1F70197D1
:1007B000D9F780E090E002C081E090E0349B5DCE0C
:1007C00065B170E080E090E00E94F90860939D02BE
:1007D00070939E0280939F029093A00220E030ECE1
:1007E00049E754E40E94110620E030E04FE753E46B
:1007F0000E940B070E94A5088B019C017093660163
:1008000060936501CB0164E670E00E94670B609322
:100810006701C8016AE070E00E94670BCB016AE0E3
:1008200070E00E94670B80936801C8016AE070E085
:100830000E94670B809369010E947B0010928E02D8
:1008400010928F02109290021092910210929202D6
:1008500010929902109298021092930210929402B0
:1008600010929502109296021092970210929B029B
:1008700010929A02FCCDEF92FF920F931F937B018F
:100880008C0120E030E040E05FE40E94E70788232D
:100890008CF0C801B70120E030E040E05FE40E9446
:1008A000B3050E94A5089B01AC0120503040404098
:1008B000504806C0C801B7010E94A5089B01AC01C1
:1008C000B901CA011F910F91FF90EF900895A0E028
:1008D000B0E0EDE6F4E00C94CB0BDC012B01FA0167
:1008E0009C91923008F439C1EB018881823008F480
:1008F00033C1943069F4843009F02FC111969C9172
:1009000011978981981709F428C1A2E8B1E025C19F
:10091000843009F421C18230A9F4923009F01DC15C
:100920009A01AD0188E0EA010990AE01E90109925E
:100930009E018150C1F7E201898111969C91892322
:10094000818308C1923009F407C112962D903C9022
:100950001397EB018A819B811496AD90BD90CD9049
:10096000DC901797EC80FD800E811F819101281B80
:10097000390BB90137FF04C066277727621B730B59
:10098000603271050CF061C0121613066CF5370168
:100990004801062E04C096948794779467940A942D
:1009A000D2F721E030E040E050E004C0220F331FD6
:1009B000441F551F6A95D2F72150304040405040A7
:1009C0002E213F2140235123211531054105510599
:1009D00021F021E030E040E050E079018A01E62892
:1009E000F728082919293CC0232BD1F1260E371EE0
:1009F00035014601062E04C0969487947794679437
:100A00000A94D2F721E030E040E050E004C0220F29
:100A1000331F441F551F6A95D2F721503040404084
:100A200050402A213B214C215D21211531054105F2
:100A3000510521F021E030E040E050E059016A0129
:100A4000A628B728C828D9280BC0821593052CF0F2
:100A50001C01AA24BB24650103C0EE24FF248701E6
:100A600011969C91D20111968C91981709F445C06A
:100A7000992339F0A80197012A193B094C095D090E
:100A800006C0A60195012E193F09400B510B57FDD9
:100A900008C01182338222822483358346835783A0
:100AA0001DC081E081833382228288279927DC015F
:100AB000821B930BA40BB50B84839583A683B7830A
:100AC0000DC0220F331F441F551F248335834683D7
:100AD0005783828193810197938382832481358117
:100AE00046815781DA01C9010197A109B1098F5FD8
:100AF0009F4FAF4FBF4328F30BC0918333822282B5
:100B0000EA0CFB1C0C1D1D1DE482F5820683178375
:100B100083E08083248135814681578157FF1AC045
:100B2000C901AA2797FDA095BA2F81709070A07077
:100B3000B0705695479537952795822B932BA42B0C
:100B4000B52B84839583A683B78382819381019695
:100B500093838283DF0101C0D201CD01CDB7DEB71F
:100B6000E2E10C94E70BA0E2B0E0E9EBF5E00C94D5
:100B7000D70B69837A838B839C832D833E834F833A
:100B80005887E9E0EE2EF12CEC0EFD1ECE01019609
:100B9000B7010E94960A8E010F5E1F4FCE01059687
:100BA000B8010E94960A8A8991E089278A8BC70139
:100BB000B801AE01475E5F4F0E9467040E94C10901
:100BC000A096E6E00C94F30BA0E2B0E0EAEEF5E0CC
:100BD0000C94D70B69837A838B839C832D833E830C
:100BE0004F835887F9E0EF2EF12CEC0EFD1ECE015D
:100BF0000196B7010E94960A8E010F5E1F4FCE012B
:100C00000596B8010E94960AC701B801AE01475E79
:100C10005F4F0E9467040E94C109A096E6E00C9411
:100C2000F30BA0E2B0E0E7E1F6E00C94CB0B6983B4
:100C30007A838B839C832D833E834F835887CE0199
:100C40000196BE01675F7F4F0E94960ACE0105960E
:100C5000BE016F5E7F4F0E94960A9985923088F0A0
:100C600089898230C8F0943019F4823051F404C07C
:100C7000843029F4923081F482E891E0C6C0923049
:100C800049F420E09A858A89981321E02A87CE01C9
:100C90000996BBC0823049F420E09A858A8998136E
:100CA00021E02A8BCE014196B0C02D843E844F8432
:100CB00058886D887E888F88988CEE24FF24870161
:100CC000AA24BB24650140E050E060E070E0E0E071
:100CD000F0E0C10181709070892BE9F0E60CF71CFF
:100CE000081D191D9A01AB012A0D3B1D4C1D5D1DF0
:100CF00080E090E0A0E0B0E0E614F70408051905F4
:100D000020F481E090E0A0E0B0E0BA01A901480F32
:100D1000591F6A1F7B1FAA0CBB1CCC1CDD1C97FE35
:100D200008C081E090E0A0E0B0E0A82AB92ACA2A71
:100D3000DB2A3196E032F10549F0660C771C881CFD
:100D4000991C5694479437942794C3CFFA85EA891F
:100D50002B893C898B859C85280F391F2E5F3F4F3F
:100D600017C0CA0181709070892B61F016950795A4
:100D7000F794E79480E090E0A0E0B0E8E82AF92A50
:100D80000A2B1B2B76956795579547952F5F3F4FFD
:100D900077FDE7CF0CC0440F551F661F771F17FD67
:100DA0004160EE0CFF1C001F111F215030404030ED
:100DB00090E0590790E0690790E4790760F32B8F82
:100DC0003C8FDB01CA018F779070A070B0708034C7
:100DD0009105A105B10561F447FD0AC0E114F104D4
:100DE0000105110529F0405C5F4F6F4F7F4F407840
:100DF0001A8EFE1711F081E08A8F4D8F5E8F6F8FF4
:100E000078A383E0898FCE0149960E94C109A096FC
:100E1000E2E10C94E70BA8E1B0E0E1E1F7E00C942B
:100E2000D30B69837A838B839C832D833E834F838B
:100E30005887B9E0EB2EF12CEC0EFD1ECE01019689
:100E4000B7010E94960A8E010F5E1F4FCE010596D4
:100E5000B8010E94960A2985223008F47EC039899B
:100E6000323010F4B8017CC08A859A8989278A8734
:100E7000243011F0223031F4231709F06EC062E8FB
:100E800071E06EC0343039F41D861E861F86188AC4
:100E90001C861B8604C0323021F484E08987B701A8
:100EA0005FC02B853C858B899C89281B390B3C872F
:100EB0002B87ED84FE840F851889AD88BE88CF8886
:100EC000D88CEA14FB040C051D0540F4EE0CFF1C45
:100ED000001F111F215030403C872B8720E030E05D
:100EE00040E050E080E090E0A0E0B0E460E070E03E
:100EF000EA14FB040C051D0540F0282B392B4A2B66
:100F00005B2BEA18FB080C091D09B695A795979568
:100F10008795EE0CFF1C001F111F6F5F7F4F6F3115
:100F2000710531F7DA01C9018F779070A070B07048
:100F300080349105A105B10561F427FD0AC0E114D3
:100F4000F1040105110529F0205C3F4F4F4F5F4F21
:100F500020782D873E874F87588BBE01675F7F4F74
:100F6000CB010E94C1096896EAE00C94EF0BA8E15E
:100F7000B0E0EDEBF7E00C94D70B69837A838B83B9
:100F80009C832D833E834F83588789E0E82EF12C84
:100F9000EC0EFD1ECE010196B7010E94960A8E014D
:100FA0000F5E1F4FCE010596B8010E94960A8985F3
:100FB000823040F08989823028F0C701B8010E9450
:100FC0000E0B01C08FEF6896E6E00C94F30BA8E1DE
:100FD000B0E0EDEEF7E00C94D70B69837A838B8356
:100FE0009C832D833E834F83588789E0E82EF12C24
:100FF000EC0EFD1ECE010196B7010E94960A8E01ED
:101000000F5E1F4FCE010596B8010E94960A898592
:10101000823040F08989823028F0C701B8010E94EF
:101020000E0B01C08FEF6896E6E00C94F30BA8E17D
:10103000B0E0EDE1F8E00C94D70B69837A838B8301
:101040009C832D833E834F83588789E0E82EF12CC3
:10105000EC0EFD1ECE010196B7010E94960A8E018C
:101060000F5E1F4FCE010596B8010E94960A898532
:10107000823040F08989823028F0C701B8010E948F
:101080000E0B01C081E06896E6E00C94F30BA8E03B
:10109000B0E0EDE4F8E00C94D40B9B01AC0183E0EC
:1010A0008983DA01C9018827B7FD83959927AA2783
:1010B000BB27B82E211531054105510519F482E0F1
:1010C00089833AC08823A9F0203080E0380780E087
:1010D000480780E8580729F460E070E080E09FEC62
:1010E00030C0EE24FF248701E21AF30A040B150B2B
:1010F00002C079018A018EE1C82ED12CDC82CB821C
:10110000ED82FE820F831887C801B7010E94720921
:1011100001971816190684F4082E04C0EE0CFF1C63
:10112000001F111F0A94D2F7ED82FE820F831887E9
:10113000C81AD90ADC82CB82BA82CE0101960E94FB
:10114000C1092896E9E00C94F00BACE0B0E0EBEAC2
:10115000F8E00C94DB0B69837A838B839C83CE014C
:101160000196BE016B5F7F4F0E94960A8D8182308F
:1011700061F1823050F1843021F48E81882351F165
:101180002EC02F81388537FD20C06E812F3131056B
:101190001CF06623F9F023C08EE190E0821B930BD4
:1011A00029853A854B855C8504C0569547953795CA
:1011B00027958A95D2F76623B1F0509540953095E2
:1011C00021953F4F4F4F5F4F0EC020E030E040E091
:1011D00050E009C02FEF3FEF4FEF5FE704C020E082
:1011E00030E040E050E8B901CA012C96E2E00C94EE
:1011F000F70BA8E0B0E0EFEFF8E00C94D30B7B0125
:101200008C01611571058105910519F482E08983CE
:1012100060C083E089838EE1C82ED12CDC82CB8232
:10122000ED82FE820F831887C801B7010E94720900
:10123000FC013197F7FF3BC0222733272E1B3F0BC2
:1012400057016801022E04C0D694C794B794A7949E
:101250000A94D2F740E050E060E070E081E090E076
:10126000A0E0B0E004C0880F991FAA1FBB1F2A95F9
:10127000D2F70197A109B1098E219F21A023B123A3
:101280000097A105B10521F041E050E060E070E079
:101290004A295B296C297D294D835E836F8378877A
:1012A0008EE190E08E1B9F0B9C838B8312C0309746
:1012B00081F00E2E04C0EE0CFF1C001F111F0A94BB
:1012C000D2F7ED82FE820F831887CE1ADF0ADC8206
:1012D000CB821A82CE0101960E94C1092896EAE0CB
:1012E0000C94EF0BEF92FF920F931F937B018C01F5
:1012F00080E0E81680E0F80681E0080780E0180743
:1013000088F48FEFE816F1040105110531F028F09B
:1013100088E090E0A0E0B0E017C080E090E0A0E0BE
:10132000B0E012C080E0E81680E0F80680E0080730
:1013300081E0180728F088E190E0A0E0B0E004C068
:1013400080E190E0A0E0B0E020E230E040E050E05A
:10135000281B390B4A0B5B0B04C016950795F794B5
:10136000E7948A95D2F7F701E657FE4F8081281B54
:10137000310941095109C9011F910F91FF90EF9067
:101380000895DF92EF92FF920F931F93FC01E48088
:10139000F58006811781D1808081823048F480E019
:1013A00090E0A0E1B0E0E82AF92A0A2B1B2BA5C0A7
:1013B000843009F49FC0823021F4EE24FF24870199
:1013C00005C0E114F1040105110519F4E0E0F0E0B5
:1013D00096C0628173819FEF623879070CF05BC021
:1013E00022E83FEF261B370B2A3131052CF020E095
:1013F00030E040E050E02AC0B801A701022E04C04E
:1014000076956795579547950A94D2F781E090E0D5
:10141000A0E0B0E004C0880F991FAA1FBB1F2A9547
:10142000D2F70197A109B1098E219F21A023B123F1
:101430000097A105B10521F081E090E0A0E0B0E0C7
:101440009A01AB01282B392B4A2B5B2BDA01C901FE
:101450008F779070A070B07080349105A105B105B0
:1014600039F427FF09C0205C3F4F4F4F5F4F04C046
:10147000215C3F4F4F4F5F4FE0E0F0E02030A0E0B5
:101480003A07A0E04A07A0E45A0710F0E1E0F0E0D4
:1014900079018A0127C06038710564F5FB01E158C4
:1014A000FF4FD801C7018F779070A070B070803463
:1014B0009105A105B10539F4E7FE0DC080E490E087
:1014C000A0E0B0E004C08FE390E0A0E0B0E0E80E60
:1014D000F91E0A1F1B1F17FF05C016950795F794E5
:1014E000E794319687E016950795F794E7948A95E7
:1014F000D1F705C0EE24FF248701EFEFF0E06E2F57
:10150000679566276795902F9F77D794DD24D794AA
:101510008E2F8695492F462B582F5D29B701CA017A
:101520001F910F91FF90EF90DF900895FC01DB0178
:10153000408151812281622F6F7770E0221F222724
:10154000221F9381892F880F822B282F30E0991F2B
:101550009927991F11969C93119721153105A9F58B
:10156000411551056105710511F482E037C082E82B
:101570009FEF13969C938E9312979A01AB0167E0AD
:10158000220F331F441F551F6A95D1F783E08C93B8
:101590000DC0220F331F441F551F12968D919C9131
:1015A0001397019713969C938E931297203080E0A7
:1015B000380780E0480780E4580758F314962D93C5
:1015C0003D934D935C93179708952F3F310579F420
:1015D000411551056105710519F484E08C93089556
:1015E00064FF03C081E08C9312C01C9210C02F577F
:1015F000304013963C932E93129783E08C9387E0B0
:10160000440F551F661F771F8A95D1F77064149693
:101610004D935D936D937C93179708951F93DC0111
:10162000FB019C91923008F447C08081823008F41D
:1016300043C0943051F411961C91843099F5818106
:10164000682F70E0611B71093FC0843021F0923037
:1016500031F48230B9F18181882389F12DC011964E
:101660001C9111978230F1F081811817D9F41296EC
:101670002D913C911397828193818217930794F067
:1016800028173907BCF014968D919D910D90BC914F
:10169000A02D2481358146815781281739074A07B3
:1016A0005B0718F4112341F00AC082179307A407BF
:1016B000B50740F4112319F061E070E005C06FEF49
:1016C0007FEF02C060E070E0CB011F91089597FBAF
:1016D000092E07260AD077FD04D027D006D0002097
:1016E0001AF4709561957F4F0895F6F7909581955E
:1016F0009F4F089597FB092E05260ED057FD04D065
:1017000028D00AD0001C38F450954095309521958A
:101710003F4F4F4F5F4F0895F6F790958095709526
:1017200061957F4F8F4F9F4F0895AA1BBB1B51E1BF
:1017300007C0AA1FBB1FA617B70710F0A61BB70B41
:10174000881F991F5A95A9F780959095BC01CD01E6
:101750000895A1E21A2EAA1BBB1BFD010DC0AA1FF2
:10176000BB1FEE1FFF1FA217B307E407F50720F00A
:10177000A21BB30BE40BF50B661F771F881F991F85
:101780001A9469F760957095809590959B01AC01CE
:10179000BD01CF0108952F923F924F925F926F92B9
:1017A0007F928F929F92AF92BF92CF92DF92EF92F1
:1017B000FF920F931F93CF93DF93CDB7DEB7CA1B72
:1017C000DB0B0FB6F894DEBF0FBECDBF09942A889D
:1017D000398848885F846E847D848C849B84AA8445
:1017E000B984C884DF80EE80FD800C811B81AA81D2
:1017F000B981CE0FD11D0FB6F894DEBF0FBECDBF9D
:10180000ED010895AF92BF92CF92DF92EF92FF92D7
:101810000F931F93CF93DF93EC01A880B980CA8008
:10182000DB80A114B104C104D10441F484E2A82EE8
:1018300089EDB82E8BE5C82E87E0D82EC601B501FC
:101840002DE133EF41E050E00E947A0B27EA31E4CA
:1018500040E050E00E946D0C7B018C01C601B50197
:101860002DE133EF41E050E00E947A0BCA01B9014B
:101870002CEE34EF4FEF5FEF0E946D0C6E0D7F1D6D
:10188000801F911F97FF04C06150704080409048B6
:10189000688379838A839B839B01AC015F77B9015D
:1018A000CA01DF91CF911F910F91FF90EF90DF90D0
:1018B000CF90BF90AF9008950E94020C08958AE8DF
:1018C00092E00E94020C089560938A0270938B024A
:1018D00080938C0290938D020895629FD001739F34
:1018E000F001829FE00DF11D649FE00DF11D929FBC
:1018F000F00D839FF00D749FF00D659FF00D9927FB
:10190000729FB00DE11DF91F639FB00DE11DF91F1E
:0C191000BD01CF0111240895F894FFCF11
:10191C00636F6D3A2000796F753A200061646A75C7
:10192C007374206C6576656C007573696E672061E5
:10193C002F640072656D656D626572204E756D73F6
:10194C002100636C69636B20627574746F6E732114
:10195C000043686565722075702100596F75277298
:10196C00652067656E697573210054727920616713
:10197C0061696E2100E7030909093F065B4F666D3B
:10198C007D070000000000000000FEFDFBF7EFDF0C
:10199C00BF7F0000000000000000000102020303F2
:1019AC0003030404040404040404050505050505E7
:1019BC0005050505050505050505060606060606C5
:1019CC0006060606060606060606060606060606AB
:1019DC000606060606060606060607070707070795
:1019EC00070707070707070707070707070707077B
:1019FC00070707070707070707070707070707076B
:101A0C00070707070707070707070707070707075A
:101A1C000707070707070707070708080808080844
:101A2C00080808080808080808080808080808082A
:101A3C00080808080808080808080808080808081A
:101A4C00080808080808080808080808080808080A
:101A5C0008080808080808080808080808080808FA
:101A6C0008080808080808080808080808080808EA
:101A7C0008080808080808080808080808080808DA
:101A8C0008080808080808080808080808080808CA
:0E1A9C000808080808080808080801000000EB
:04000003000003589E
:00000001FF
