:100000000C9446000C945D000C945D000C945D0013
:100010000C945D000C945D000C945D000C945D00EC
:100020000C945D000C945D000C945D000C945D00DC
:100030000C945D000C945D000C945D000C945D00CC
:100040000C945D000C945D000C945D000C945D00BC
:100050000C945D000C945D000C945D000C945D00AC
:100060000C945D000C945D000C945D000C945D009C
:100070000C945D000C945D000C945D000C945D008C
:100080000C945D000C945D000C945D0011241FBE67
:10009000CFEFD0E1DEBFCDBF11E0A0E0B1E0E4EFF3
:1000A000F2E000E00BBF02C007900D92A031B10753
:1000B000D9F70E94BC000C9478010C940000E5E68E
:1000C000F0E090819D7F908390819E7F908382BBA2
:1000D00080818460808380EA9FE00197F1F78081CE
:1000E0008B7F808308958FEF81BB8093640012BA69
:1000F0001092650080EA9FE00197F1F788E30E9483
:100100005F008CE00E945F0086E00E945F0081E05B
:100110000E945F0080E00E945F000895E5E6F0E045
:1001200090819D7F908390819160908382BB80813C
:100130008460808380EA9FE00197F1F780818B7F64
:1001400080830895803108F08FE0662311F4805891
:1001500001C080540E945F000895CF93DF93EA01AD
:100160000E94A20003C00E948E00219688818823ED
:10017000D1F7DF91CF9108958F929F92AF92BF9266
:10018000CF92DF92EF92FF920F931F93DF93CF9363
:10019000CDB7DEB762970FB6F894DEBF0FBECDBF06
:1001A0009FEF9ABB97BB80EF84BB9BBB18BA0E94A2
:1001B0007300DE011396E0E0F1E080E101900D9222
:1001C0008150E1F780E7898380EE8A8300E010E0C8
:1001D000FF24EE244E010894811C911C73E0A72E8D
:1001E000B12CAC0EBD1E60E9C62E61E0D62EF40126
:1001F000E00FF11F808185BB83B38F708F3009F4CE
:1002000062C080958F70813059F484EC99E0F601DA
:100210003197F1F70197D9F7E02EEE0CEE0C33C0D1
:10022000823079F484EC99E0F6013197F1F7019787
:10023000D9F7C801880F991F880F991FE82EE394FA
:1002400022C0843079F484EC99E0F6013197F1F71B
:100250000197D9F7C801880F991F880F991F32E0BD
:10026000E32E10C0883081F484EC99E0F6013197D8
:10027000F1F70197D9F7C801880F991F880F991FC7
:1002800093E0E92EE80EF394F501EE0DF11D808167
:1002900088BB0E9473008EE060E00E94A20089E0AB
:1002A0008F1568F48F2D6AE00E946C01805D0E94BA
:1002B0008E008F2D6AE00E946C01892F01C08F2D66
:1002C000805D0E948E000F5F1F4F0130110509F401
:1002D0008ECF00E010E08BCF991B79E004C0991F0E
:1002E000961708F0961B881F7A95C9F78095089590
:0402F000F894FFCFB0
:1002F4003F065B4F666D7D070000000000000000B4
:00000001FF
